{
  "_format": "hh-sol-artifact-1",
  "contractName": "RockPaperScissor",
  "sourceName": "contracts/RockPaperScissor.sol",
  "abi": [
    {
      "inputs": [],
      "stateMutability": "nonpayable",
      "type": "constructor"
    },
    {
      "anonymous": false,
      "inputs": [
        {
          "indexed": true,
          "internalType": "address",
          "name": "owner",
          "type": "address"
        },
        {
          "indexed": true,
          "internalType": "address",
          "name": "approved",
          "type": "address"
        },
        {
          "indexed": true,
          "internalType": "uint256",
          "name": "tokenId",
          "type": "uint256"
        }
      ],
      "name": "Approval",
      "type": "event"
    },
    {
      "anonymous": false,
      "inputs": [
        {
          "indexed": true,
          "internalType": "address",
          "name": "owner",
          "type": "address"
        },
        {
          "indexed": true,
          "internalType": "address",
          "name": "operator",
          "type": "address"
        },
        {
          "indexed": false,
          "internalType": "bool",
          "name": "approved",
          "type": "bool"
        }
      ],
      "name": "ApprovalForAll",
      "type": "event"
    },
    {
      "anonymous": false,
      "inputs": [
        {
          "indexed": false,
          "internalType": "uint256",
          "name": "id",
          "type": "uint256"
        },
        {
          "indexed": true,
          "internalType": "address",
          "name": "owner",
          "type": "address"
        },
        {
          "indexed": false,
          "internalType": "uint256",
          "name": "dna",
          "type": "uint256"
        }
      ],
      "name": "NewCard",
      "type": "event"
    },
    {
      "anonymous": false,
      "inputs": [
        {
          "indexed": true,
          "internalType": "address",
          "name": "previousOwner",
          "type": "address"
        },
        {
          "indexed": true,
          "internalType": "address",
          "name": "newOwner",
          "type": "address"
        }
      ],
      "name": "OwnershipTransferred",
      "type": "event"
    },
    {
      "anonymous": false,
      "inputs": [
        {
          "indexed": true,
          "internalType": "address",
          "name": "from",
          "type": "address"
        },
        {
          "indexed": true,
          "internalType": "address",
          "name": "to",
          "type": "address"
        },
        {
          "indexed": true,
          "internalType": "uint256",
          "name": "tokenId",
          "type": "uint256"
        }
      ],
      "name": "Transfer",
      "type": "event"
    },
    {
      "inputs": [
        {
          "internalType": "address",
          "name": "to",
          "type": "address"
        },
        {
          "internalType": "uint256",
          "name": "tokenId",
          "type": "uint256"
        }
      ],
      "name": "approve",
      "outputs": [],
      "stateMutability": "nonpayable",
      "type": "function"
    },
    {
      "inputs": [
        {
          "internalType": "address",
          "name": "owner",
          "type": "address"
        }
      ],
      "name": "balanceOf",
      "outputs": [
        {
          "internalType": "uint256",
          "name": "",
          "type": "uint256"
        }
      ],
      "stateMutability": "view",
      "type": "function"
    },
    {
      "inputs": [
        {
          "internalType": "uint256",
          "name": "",
          "type": "uint256"
        }
      ],
      "name": "cards",
      "outputs": [
        {
          "internalType": "uint256",
          "name": "tokenId",
          "type": "uint256"
        },
        {
          "internalType": "address",
          "name": "owner",
          "type": "address"
        },
        {
          "internalType": "uint256",
          "name": "dna",
          "type": "uint256"
        },
        {
          "internalType": "uint256",
          "name": "level",
          "type": "uint256"
        }
      ],
      "stateMutability": "view",
      "type": "function"
    },
    {
      "inputs": [],
      "name": "createRandomCard",
      "outputs": [],
      "stateMutability": "payable",
      "type": "function"
    },
    {
      "inputs": [
        {
          "internalType": "uint256",
          "name": "tokenId",
          "type": "uint256"
        }
      ],
      "name": "getApproved",
      "outputs": [
        {
          "internalType": "address",
          "name": "",
          "type": "address"
        }
      ],
      "stateMutability": "view",
      "type": "function"
    },
    {
      "inputs": [],
      "name": "getCards",
      "outputs": [
        {
          "components": [
            {
              "internalType": "uint256",
              "name": "tokenId",
              "type": "uint256"
            },
            {
              "internalType": "address",
              "name": "owner",
              "type": "address"
            },
            {
              "internalType": "uint256",
              "name": "dna",
              "type": "uint256"
            },
            {
              "internalType": "uint256",
              "name": "level",
              "type": "uint256"
            }
          ],
          "internalType": "struct RockPaperScissor.Card[]",
          "name": "",
          "type": "tuple[]"
        }
      ],
      "stateMutability": "view",
      "type": "function"
    },
    {
      "inputs": [
        {
          "internalType": "address",
          "name": "_owner",
          "type": "address"
        }
      ],
      "name": "getOwnerCards",
      "outputs": [
        {
          "components": [
            {
              "internalType": "uint256",
              "name": "tokenId",
              "type": "uint256"
            },
            {
              "internalType": "address",
              "name": "owner",
              "type": "address"
            },
            {
              "internalType": "uint256",
              "name": "dna",
              "type": "uint256"
            },
            {
              "internalType": "uint256",
              "name": "level",
              "type": "uint256"
            }
          ],
          "internalType": "struct RockPaperScissor.Card[]",
          "name": "",
          "type": "tuple[]"
        }
      ],
      "stateMutability": "view",
      "type": "function"
    },
    {
      "inputs": [
        {
          "internalType": "address",
          "name": "owner",
          "type": "address"
        },
        {
          "internalType": "address",
          "name": "operator",
          "type": "address"
        }
      ],
      "name": "isApprovedForAll",
      "outputs": [
        {
          "internalType": "bool",
          "name": "",
          "type": "bool"
        }
      ],
      "stateMutability": "view",
      "type": "function"
    },
    {
      "inputs": [
        {
          "internalType": "uint256",
          "name": "_tokenId",
          "type": "uint256"
        }
      ],
      "name": "levelUp",
      "outputs": [],
      "stateMutability": "nonpayable",
      "type": "function"
    },
    {
      "inputs": [],
      "name": "name",
      "outputs": [
        {
          "internalType": "string",
          "name": "",
          "type": "string"
        }
      ],
      "stateMutability": "view",
      "type": "function"
    },
    {
      "inputs": [],
      "name": "owner",
      "outputs": [
        {
          "internalType": "address",
          "name": "",
          "type": "address"
        }
      ],
      "stateMutability": "view",
      "type": "function"
    },
    {
      "inputs": [
        {
          "internalType": "uint256",
          "name": "tokenId",
          "type": "uint256"
        }
      ],
      "name": "ownerOf",
      "outputs": [
        {
          "internalType": "address",
          "name": "",
          "type": "address"
        }
      ],
      "stateMutability": "view",
      "type": "function"
    },
    {
      "inputs": [],
      "name": "renounceOwnership",
      "outputs": [],
      "stateMutability": "nonpayable",
      "type": "function"
    },
    {
      "inputs": [
        {
          "internalType": "address",
          "name": "from",
          "type": "address"
        },
        {
          "internalType": "address",
          "name": "to",
          "type": "address"
        },
        {
          "internalType": "uint256",
          "name": "tokenId",
          "type": "uint256"
        }
      ],
      "name": "safeTransferFrom",
      "outputs": [],
      "stateMutability": "nonpayable",
      "type": "function"
    },
    {
      "inputs": [
        {
          "internalType": "address",
          "name": "from",
          "type": "address"
        },
        {
          "internalType": "address",
          "name": "to",
          "type": "address"
        },
        {
          "internalType": "uint256",
          "name": "tokenId",
          "type": "uint256"
        },
        {
          "internalType": "bytes",
          "name": "_data",
          "type": "bytes"
        }
      ],
      "name": "safeTransferFrom",
      "outputs": [],
      "stateMutability": "nonpayable",
      "type": "function"
    },
    {
      "inputs": [
        {
          "internalType": "address",
          "name": "operator",
          "type": "address"
        },
        {
          "internalType": "bool",
          "name": "approved",
          "type": "bool"
        }
      ],
      "name": "setApprovalForAll",
      "outputs": [],
      "stateMutability": "nonpayable",
      "type": "function"
    },
    {
      "inputs": [
        {
          "internalType": "bytes4",
          "name": "interfaceId",
          "type": "bytes4"
        }
      ],
      "name": "supportsInterface",
      "outputs": [
        {
          "internalType": "bool",
          "name": "",
          "type": "bool"
        }
      ],
      "stateMutability": "view",
      "type": "function"
    },
    {
      "inputs": [],
      "name": "symbol",
      "outputs": [
        {
          "internalType": "string",
          "name": "",
          "type": "string"
        }
      ],
      "stateMutability": "view",
      "type": "function"
    },
    {
      "inputs": [
        {
          "internalType": "uint256",
          "name": "tokenId",
          "type": "uint256"
        }
      ],
      "name": "tokenURI",
      "outputs": [
        {
          "internalType": "string",
          "name": "",
          "type": "string"
        }
      ],
      "stateMutability": "view",
      "type": "function"
    },
    {
      "inputs": [
        {
          "internalType": "address",
          "name": "from",
          "type": "address"
        },
        {
          "internalType": "address",
          "name": "to",
          "type": "address"
        },
        {
          "internalType": "uint256",
          "name": "tokenId",
          "type": "uint256"
        }
      ],
      "name": "transferFrom",
      "outputs": [],
      "stateMutability": "nonpayable",
      "type": "function"
    },
    {
      "inputs": [
        {
          "internalType": "address",
          "name": "newOwner",
          "type": "address"
        }
      ],
      "name": "transferOwnership",
      "outputs": [],
      "stateMutability": "nonpayable",
      "type": "function"
    },
    {
      "inputs": [
        {
          "internalType": "uint256",
          "name": "_fee",
          "type": "uint256"
        }
      ],
      "name": "updateFee",
      "outputs": [],
      "stateMutability": "nonpayable",
      "type": "function"
    },
    {
      "inputs": [],
      "name": "withdraw",
      "outputs": [],
      "stateMutability": "payable",
      "type": "function"
    }
  ],
  "bytecode": "0x6080604052662386f26fc100006009553480156200001c57600080fd5b506040518060400160405280601081526020017f526f636b506170657253636973736f72000000000000000000000000000000008152506040518060400160405280600381526020017f52505300000000000000000000000000000000000000000000000000000000008152508160009080519060200190620000a1929190620001b1565b508060019080519060200190620000ba929190620001b1565b505050620000dd620000d1620000e360201b60201c565b620000eb60201b60201c565b620002c6565b600033905090565b6000600760009054906101000a900473ffffffffffffffffffffffffffffffffffffffff16905081600760006101000a81548173ffffffffffffffffffffffffffffffffffffffff021916908373ffffffffffffffffffffffffffffffffffffffff1602179055508173ffffffffffffffffffffffffffffffffffffffff168173ffffffffffffffffffffffffffffffffffffffff167f8be0079c531659141344cd1fd0a4f28419497f9722a3daafe3b4186f6b6457e060405160405180910390a35050565b828054620001bf9062000261565b90600052602060002090601f016020900481019282620001e357600085556200022f565b82601f10620001fe57805160ff19168380011785556200022f565b828001600101855582156200022f579182015b828111156200022e57825182559160200191906001019062000211565b5b5090506200023e919062000242565b5090565b5b808211156200025d57600081600090555060010162000243565b5090565b600060028204905060018216806200027a57607f821691505b6020821081141562000291576200029062000297565b5b50919050565b7f4e487b7100000000000000000000000000000000000000000000000000000000600052602260045260246000fd5b6138ce80620002d66000396000f3fe6080604052600436106101405760003560e01c80638da5cb5b116100b6578063b88d4fde1161006f578063b88d4fde1461043c578063bec77cb114610465578063c87b56dd146104a2578063e985e9c5146104df578063f2fde38b1461051c578063fb3f77661461054557610140565b80638da5cb5b146103295780638dc10768146103545780639012c4a81461039457806395d89b41146103bd578063a22cb465146103e8578063b0df9e531461041157610140565b806323b872dd1161010857806323b872dd1461023c5780633ccfd60b1461026557806342842e0e1461026f5780636352211e1461029857806370a08231146102d5578063715018a61461031257610140565b806301ffc9a71461014557806306fdde0314610182578063081812fc146101ad578063095ea7b3146101ea5780630ce90ec214610213575b600080fd5b34801561015157600080fd5b5061016c600480360381019061016791906126a6565b61054f565b6040516101799190612c34565b60405180910390f35b34801561018e57600080fd5b50610197610631565b6040516101a49190612c4f565b60405180910390f35b3480156101b957600080fd5b506101d460048036038101906101cf91906126f8565b6106c3565b6040516101e19190612bab565b60405180910390f35b3480156101f657600080fd5b50610211600480360381019061020c919061266a565b610748565b005b34801561021f57600080fd5b5061023a600480360381019061023591906126f8565b610860565b005b34801561024857600080fd5b50610263600480360381019061025e9190612564565b61090a565b005b61026d61096a565b005b34801561027b57600080fd5b5061029660048036038101906102919190612564565b610a3c565b005b3480156102a457600080fd5b506102bf60048036038101906102ba91906126f8565b610a5c565b6040516102cc9190612bab565b60405180910390f35b3480156102e157600080fd5b506102fc60048036038101906102f791906124ff565b610b0e565b6040516103099190612e91565b60405180910390f35b34801561031e57600080fd5b50610327610bc6565b005b34801561033557600080fd5b5061033e610c4e565b60405161034b9190612bab565b60405180910390f35b34801561036057600080fd5b5061037b600480360381019061037691906126f8565b610c78565b60405161038b9493929190612eac565b60405180910390f35b3480156103a057600080fd5b506103bb60048036038101906103b691906126f8565b610cd8565b005b3480156103c957600080fd5b506103d2610d5e565b6040516103df9190612c4f565b60405180910390f35b3480156103f457600080fd5b5061040f600480360381019061040a919061262e565b610df0565b005b34801561041d57600080fd5b50610426610e06565b6040516104339190612c12565b60405180910390f35b34801561044857600080fd5b50610463600480360381019061045e91906125b3565b610ed9565b005b34801561047157600080fd5b5061048c600480360381019061048791906124ff565b610f3b565b6040516104999190612c12565b60405180910390f35b3480156104ae57600080fd5b506104c960048036038101906104c491906126f8565b611148565b6040516104d69190612c4f565b60405180910390f35b3480156104eb57600080fd5b5061050660048036038101906105019190612528565b61129a565b6040516105139190612c34565b60405180910390f35b34801561052857600080fd5b50610543600480360381019061053e91906124ff565b61132e565b005b61054d611426565b005b60007f80ac58cd000000000000000000000000000000000000000000000000000000007bffffffffffffffffffffffffffffffffffffffffffffffffffffffff1916827bffffffffffffffffffffffffffffffffffffffffffffffffffffffff1916148061061a57507f5b5e139f000000000000000000000000000000000000000000000000000000007bffffffffffffffffffffffffffffffffffffffffffffffffffffffff1916827bffffffffffffffffffffffffffffffffffffffffffffffffffffffff1916145b8061062a57506106298261145f565b5b9050919050565b60606000805461064090613167565b80601f016020809104026020016040519081016040528092919081815260200182805461066c90613167565b80156106b95780601f1061068e576101008083540402835291602001916106b9565b820191906000526020600020905b81548152906001019060200180831161069c57829003601f168201915b5050505050905090565b60006106ce826114c9565b61070d576040517f08c379a000000000000000000000000000000000000000000000000000000000815260040161070490612df1565b60405180910390fd5b6004600083815260200190815260200160002060009054906101000a900473ffffffffffffffffffffffffffffffffffffffff169050919050565b600061075382610a5c565b90508073ffffffffffffffffffffffffffffffffffffffff168373ffffffffffffffffffffffffffffffffffffffff1614156107c4576040517f08c379a00000000000000000000000000000000000000000000000000000000081526004016107bb90612e51565b60405180910390fd5b8073ffffffffffffffffffffffffffffffffffffffff166107e3611535565b73ffffffffffffffffffffffffffffffffffffffff16148061081257506108118161080c611535565b61129a565b5b610851576040517f08c379a000000000000000000000000000000000000000000000000000000000815260040161084890612d51565b60405180910390fd5b61085b838361153d565b505050565b3373ffffffffffffffffffffffffffffffffffffffff1661088082610a5c565b73ffffffffffffffffffffffffffffffffffffffff16146108a057600080fd5b6000600a82815481106108dc577f4e487b7100000000000000000000000000000000000000000000000000000000600052603260045260246000fd5b9060005260206000209060040201905080600301600081548092919061090190613213565b91905055505050565b61091b610915611535565b826115f6565b61095a576040517f08c379a000000000000000000000000000000000000000000000000000000000815260040161095190612e71565b60405180910390fd5b6109658383836116d4565b505050565b610972611535565b73ffffffffffffffffffffffffffffffffffffffff16610990610c4e565b73ffffffffffffffffffffffffffffffffffffffff16146109e6576040517f08c379a00000000000000000000000000000000000000000000000000000000081526004016109dd90612e11565b60405180910390fd5b60006109f0610c4e565b90508073ffffffffffffffffffffffffffffffffffffffff166108fc479081150290604051600060405180830381858888f19350505050158015610a38573d6000803e3d6000fd5b5050565b610a5783838360405180602001604052806000815250610ed9565b505050565b6000806002600084815260200190815260200160002060009054906101000a900473ffffffffffffffffffffffffffffffffffffffff169050600073ffffffffffffffffffffffffffffffffffffffff168173ffffffffffffffffffffffffffffffffffffffff161415610b05576040517f08c379a0000000000000000000000000000000000000000000000000000000008152600401610afc90612d91565b60405180910390fd5b80915050919050565b60008073ffffffffffffffffffffffffffffffffffffffff168273ffffffffffffffffffffffffffffffffffffffff161415610b7f576040517f08c379a0000000000000000000000000000000000000000000000000000000008152600401610b7690612d71565b60405180910390fd5b600360008373ffffffffffffffffffffffffffffffffffffffff1673ffffffffffffffffffffffffffffffffffffffff168152602001908152602001600020549050919050565b610bce611535565b73ffffffffffffffffffffffffffffffffffffffff16610bec610c4e565b73ffffffffffffffffffffffffffffffffffffffff1614610c42576040517f08c379a0000000000000000000000000000000000000000000000000000000008152600401610c3990612e11565b60405180910390fd5b610c4c600061193b565b565b6000600760009054906101000a900473ffffffffffffffffffffffffffffffffffffffff16905090565b600a8181548110610c8857600080fd5b90600052602060002090600402016000915090508060000154908060010160009054906101000a900473ffffffffffffffffffffffffffffffffffffffff16908060020154908060030154905084565b610ce0611535565b73ffffffffffffffffffffffffffffffffffffffff16610cfe610c4e565b73ffffffffffffffffffffffffffffffffffffffff1614610d54576040517f08c379a0000000000000000000000000000000000000000000000000000000008152600401610d4b90612e11565b60405180910390fd5b8060098190555050565b606060018054610d6d90613167565b80601f0160208091040260200160405190810160405280929190818152602001828054610d9990613167565b8015610de65780601f10610dbb57610100808354040283529160200191610de6565b820191906000526020600020905b815481529060010190602001808311610dc957829003601f168201915b5050505050905090565b610e02610dfb611535565b8383611a01565b5050565b6060600a805480602002602001604051908101604052809291908181526020016000905b82821015610ed05783829060005260206000209060040201604051806080016040529081600082015481526020016001820160009054906101000a900473ffffffffffffffffffffffffffffffffffffffff1673ffffffffffffffffffffffffffffffffffffffff1673ffffffffffffffffffffffffffffffffffffffff1681526020016002820154815260200160038201548152505081526020019060010190610e2a565b50505050905090565b610eea610ee4611535565b836115f6565b610f29576040517f08c379a0000000000000000000000000000000000000000000000000000000008152600401610f2090612e71565b60405180910390fd5b610f3584848484611b6e565b50505050565b60606000610f4883610b0e565b67ffffffffffffffff811115610f87577f4e487b7100000000000000000000000000000000000000000000000000000000600052604160045260246000fd5b604051908082528060200260200182016040528015610fc057816020015b610fad6123f0565b815260200190600190039081610fa55790505b5090506000805b600a8054905081101561113d578473ffffffffffffffffffffffffffffffffffffffff16610ff482610a5c565b73ffffffffffffffffffffffffffffffffffffffff16141561112a57600a818154811061104a577f4e487b7100000000000000000000000000000000000000000000000000000000600052603260045260246000fd5b9060005260206000209060040201604051806080016040529081600082015481526020016001820160009054906101000a900473ffffffffffffffffffffffffffffffffffffffff1673ffffffffffffffffffffffffffffffffffffffff1673ffffffffffffffffffffffffffffffffffffffff16815260200160028201548152602001600382015481525050838381518110611110577f4e487b7100000000000000000000000000000000000000000000000000000000600052603260045260246000fd5b6020026020010181905250818061112690613213565b9250505b808061113590613213565b915050610fc7565b508192505050919050565b6060611153826114c9565b611192576040517f08c379a000000000000000000000000000000000000000000000000000000000815260040161118990612dd1565b60405180910390fd5b60006006600084815260200190815260200160002080546111b290613167565b80601f01602080910402602001604051908101604052809291908181526020018280546111de90613167565b801561122b5780601f106112005761010080835404028352916020019161122b565b820191906000526020600020905b81548152906001019060200180831161120e57829003601f168201915b50505050509050600061123c611bca565b9050600081511415611252578192505050611295565b60008251111561128757808260405160200161126f929190612b5b565b60405160208183030381529060405292505050611295565b61129084611be1565b925050505b919050565b6000600560008473ffffffffffffffffffffffffffffffffffffffff1673ffffffffffffffffffffffffffffffffffffffff16815260200190815260200160002060008373ffffffffffffffffffffffffffffffffffffffff1673ffffffffffffffffffffffffffffffffffffffff16815260200190815260200160002060009054906101000a900460ff16905092915050565b611336611535565b73ffffffffffffffffffffffffffffffffffffffff16611354610c4e565b73ffffffffffffffffffffffffffffffffffffffff16146113aa576040517f08c379a00000000000000000000000000000000000000000000000000000000081526004016113a190612e11565b60405180910390fd5b600073ffffffffffffffffffffffffffffffffffffffff168173ffffffffffffffffffffffffffffffffffffffff16141561141a576040517f08c379a000000000000000000000000000000000000000000000000000000000815260040161141190612c91565b60405180910390fd5b6114238161193b565b50565b60095434101561143557600080fd5b60005b600f81121561145c57611449611c88565b8080611454906131ca565b915050611438565b50565b60007f01ffc9a7000000000000000000000000000000000000000000000000000000007bffffffffffffffffffffffffffffffffffffffffffffffffffffffff1916827bffffffffffffffffffffffffffffffffffffffffffffffffffffffff1916149050919050565b60008073ffffffffffffffffffffffffffffffffffffffff166002600084815260200190815260200160002060009054906101000a900473ffffffffffffffffffffffffffffffffffffffff1673ffffffffffffffffffffffffffffffffffffffff1614159050919050565b600033905090565b816004600083815260200190815260200160002060006101000a81548173ffffffffffffffffffffffffffffffffffffffff021916908373ffffffffffffffffffffffffffffffffffffffff160217905550808273ffffffffffffffffffffffffffffffffffffffff166115b083610a5c565b73ffffffffffffffffffffffffffffffffffffffff167f8c5be1e5ebec7d5bd14f71427d1e84f3dd0314c0f7b2291e5b200ac8c7c3b92560405160405180910390a45050565b6000611601826114c9565b611640576040517f08c379a000000000000000000000000000000000000000000000000000000000815260040161163790612d31565b60405180910390fd5b600061164b83610a5c565b90508073ffffffffffffffffffffffffffffffffffffffff168473ffffffffffffffffffffffffffffffffffffffff1614806116ba57508373ffffffffffffffffffffffffffffffffffffffff166116a2846106c3565b73ffffffffffffffffffffffffffffffffffffffff16145b806116cb57506116ca818561129a565b5b91505092915050565b8273ffffffffffffffffffffffffffffffffffffffff166116f482610a5c565b73ffffffffffffffffffffffffffffffffffffffff161461174a576040517f08c379a000000000000000000000000000000000000000000000000000000000815260040161174190612cb1565b60405180910390fd5b600073ffffffffffffffffffffffffffffffffffffffff168273ffffffffffffffffffffffffffffffffffffffff1614156117ba576040517f08c379a00000000000000000000000000000000000000000000000000000000081526004016117b190612cf1565b60405180910390fd5b6117c5838383611de7565b6117d060008261153d565b6001600360008573ffffffffffffffffffffffffffffffffffffffff1673ffffffffffffffffffffffffffffffffffffffff16815260200190815260200160002060008282546118209190613073565b925050819055506001600360008473ffffffffffffffffffffffffffffffffffffffff1673ffffffffffffffffffffffffffffffffffffffff16815260200190815260200160002060008282546118779190612fec565b92505081905550816002600083815260200190815260200160002060006101000a81548173ffffffffffffffffffffffffffffffffffffffff021916908373ffffffffffffffffffffffffffffffffffffffff160217905550808273ffffffffffffffffffffffffffffffffffffffff168473ffffffffffffffffffffffffffffffffffffffff167fddf252ad1be2c89b69c2b068fc378daa952ba7f163c4a11628f55a4df523b3ef60405160405180910390a4611936838383611dec565b505050565b6000600760009054906101000a900473ffffffffffffffffffffffffffffffffffffffff16905081600760006101000a81548173ffffffffffffffffffffffffffffffffffffffff021916908373ffffffffffffffffffffffffffffffffffffffff1602179055508173ffffffffffffffffffffffffffffffffffffffff168173ffffffffffffffffffffffffffffffffffffffff167f8be0079c531659141344cd1fd0a4f28419497f9722a3daafe3b4186f6b6457e060405160405180910390a35050565b8173ffffffffffffffffffffffffffffffffffffffff168373ffffffffffffffffffffffffffffffffffffffff161415611a70576040517f08c379a0000000000000000000000000000000000000000000000000000000008152600401611a6790612d11565b60405180910390fd5b80600560008573ffffffffffffffffffffffffffffffffffffffff1673ffffffffffffffffffffffffffffffffffffffff16815260200190815260200160002060008473ffffffffffffffffffffffffffffffffffffffff1673ffffffffffffffffffffffffffffffffffffffff16815260200190815260200160002060006101000a81548160ff0219169083151502179055508173ffffffffffffffffffffffffffffffffffffffff168373ffffffffffffffffffffffffffffffffffffffff167f17307eab39ab6107e8899845ad3d59bd9653f200f220920489ca2b5937696c3183604051611b619190612c34565b60405180910390a3505050565b611b798484846116d4565b611b8584848484611df1565b611bc4576040517f08c379a0000000000000000000000000000000000000000000000000000000008152600401611bbb90612c71565b60405180910390fd5b50505050565b606060405180602001604052806000815250905090565b6060611bec826114c9565b611c2b576040517f08c379a0000000000000000000000000000000000000000000000000000000008152600401611c2290612e31565b60405180910390fd5b6000611c35611bca565b90506000815111611c555760405180602001604052806000815250611c80565b80611c5f84611f88565b604051602001611c70929190612b5b565b6040516020818303038152906040525b915050919050565b6000611c9a662386f26fc10000612135565b90506000604051806080016040528060085481526020013373ffffffffffffffffffffffffffffffffffffffff16815260200183815260200160018152509050600a8190806001815401808255809150506001900390600052602060002090600402016000909190919091506000820151816000015560208201518160010160006101000a81548173ffffffffffffffffffffffffffffffffffffffff021916908373ffffffffffffffffffffffffffffffffffffffff16021790555060408201518160020155606082015181600301555050611d793360085461217a565b3373ffffffffffffffffffffffffffffffffffffffff167feb57c226e07234d31cce804586ab7d82adc046aa8bf7fb22df36b3868564898360085484604051611dc3929190612ef1565b60405180910390a260086000815480929190611dde90613213565b91905055505050565b505050565b505050565b6000611e128473ffffffffffffffffffffffffffffffffffffffff16612198565b15611f7b578373ffffffffffffffffffffffffffffffffffffffff1663150b7a02611e3b611535565b8786866040518563ffffffff1660e01b8152600401611e5d9493929190612bc6565b602060405180830381600087803b158015611e7757600080fd5b505af1925050508015611ea857506040513d601f19601f82011682018060405250810190611ea591906126cf565b60015b611f2b573d8060008114611ed8576040519150601f19603f3d011682016040523d82523d6000602084013e611edd565b606091505b50600081511415611f23576040517f08c379a0000000000000000000000000000000000000000000000000000000008152600401611f1a90612c71565b60405180910390fd5b805181602001fd5b63150b7a0260e01b7bffffffffffffffffffffffffffffffffffffffffffffffffffffffff1916817bffffffffffffffffffffffffffffffffffffffffffffffffffffffff191614915050611f80565b600190505b949350505050565b60606000821415611fd0576040518060400160405280600181526020017f30000000000000000000000000000000000000000000000000000000000000008152509050612130565b600082905060005b60008214612002578080611feb90613213565b915050600a82611ffb9190613042565b9150611fd8565b60008167ffffffffffffffff811115612044577f4e487b7100000000000000000000000000000000000000000000000000000000600052604160045260246000fd5b6040519080825280601f01601f1916602001820160405280156120765781602001600182028036833780820191505090505b5090505b600085146121295760018261208f9190613073565b9150600a8561209e919061328a565b60306120aa9190612fec565b60f81b8183815181106120e6577f4e487b7100000000000000000000000000000000000000000000000000000000600052603260045260246000fd5b60200101907effffffffffffffffffffffffffffffffffffffffffffffffffffffffffffff1916908160001a905350600a856121229190613042565b945061207a565b8093505050505b919050565b600080423360405160200161214b929190612b7f565b6040516020818303038152906040528051906020012060001c90508281612172919061328a565b915050919050565b6121948282604051806020016040528060008152506121bb565b5050565b6000808273ffffffffffffffffffffffffffffffffffffffff163b119050919050565b6121c58383612216565b6121d26000848484611df1565b612211576040517f08c379a000000000000000000000000000000000000000000000000000000000815260040161220890612c71565b60405180910390fd5b505050565b600073ffffffffffffffffffffffffffffffffffffffff168273ffffffffffffffffffffffffffffffffffffffff161415612286576040517f08c379a000000000000000000000000000000000000000000000000000000000815260040161227d90612db1565b60405180910390fd5b61228f816114c9565b156122cf576040517f08c379a00000000000000000000000000000000000000000000000000000000081526004016122c690612cd1565b60405180910390fd5b6122db60008383611de7565b6001600360008473ffffffffffffffffffffffffffffffffffffffff1673ffffffffffffffffffffffffffffffffffffffff168152602001908152602001600020600082825461232b9190612fec565b92505081905550816002600083815260200190815260200160002060006101000a81548173ffffffffffffffffffffffffffffffffffffffff021916908373ffffffffffffffffffffffffffffffffffffffff160217905550808273ffffffffffffffffffffffffffffffffffffffff16600073ffffffffffffffffffffffffffffffffffffffff167fddf252ad1be2c89b69c2b068fc378daa952ba7f163c4a11628f55a4df523b3ef60405160405180910390a46123ec60008383611dec565b5050565b604051806080016040528060008152602001600073ffffffffffffffffffffffffffffffffffffffff16815260200160008152602001600081525090565b600061244161243c84612f3f565b612f1a565b90508281526020810184848401111561245957600080fd5b612464848285613125565b509392505050565b60008135905061247b8161383c565b92915050565b60008135905061249081613853565b92915050565b6000813590506124a58161386a565b92915050565b6000815190506124ba8161386a565b92915050565b600082601f8301126124d157600080fd5b81356124e184826020860161242e565b91505092915050565b6000813590506124f981613881565b92915050565b60006020828403121561251157600080fd5b600061251f8482850161246c565b91505092915050565b6000806040838503121561253b57600080fd5b60006125498582860161246c565b925050602061255a8582860161246c565b9150509250929050565b60008060006060848603121561257957600080fd5b60006125878682870161246c565b93505060206125988682870161246c565b92505060406125a9868287016124ea565b9150509250925092565b600080600080608085870312156125c957600080fd5b60006125d78782880161246c565b94505060206125e88782880161246c565b93505060406125f9878288016124ea565b925050606085013567ffffffffffffffff81111561261657600080fd5b612622878288016124c0565b91505092959194509250565b6000806040838503121561264157600080fd5b600061264f8582860161246c565b925050602061266085828601612481565b9150509250929050565b6000806040838503121561267d57600080fd5b600061268b8582860161246c565b925050602061269c858286016124ea565b9150509250929050565b6000602082840312156126b857600080fd5b60006126c684828501612496565b91505092915050565b6000602082840312156126e157600080fd5b60006126ef848285016124ab565b91505092915050565b60006020828403121561270a57600080fd5b6000612718848285016124ea565b91505092915050565b600061272d8383612ad1565b60808301905092915050565b612742816130a7565b82525050565b612751816130a7565b82525050565b612768612763826130a7565b61325c565b82525050565b600061277982612f80565b6127838185612fae565b935061278e83612f70565b8060005b838110156127bf5781516127a68882612721565b97506127b183612fa1565b925050600181019050612792565b5085935050505092915050565b6127d5816130b9565b82525050565b60006127e682612f8b565b6127f08185612fbf565b9350612800818560208601613134565b61280981613377565b840191505092915050565b600061281f82612f96565b6128298185612fd0565b9350612839818560208601613134565b61284281613377565b840191505092915050565b600061285882612f96565b6128628185612fe1565b9350612872818560208601613134565b80840191505092915050565b600061288b603283612fd0565b915061289682613395565b604082019050919050565b60006128ae602683612fd0565b91506128b9826133e4565b604082019050919050565b60006128d1602583612fd0565b91506128dc82613433565b604082019050919050565b60006128f4601c83612fd0565b91506128ff82613482565b602082019050919050565b6000612917602483612fd0565b9150612922826134ab565b604082019050919050565b600061293a601983612fd0565b9150612945826134fa565b602082019050919050565b600061295d602c83612fd0565b915061296882613523565b604082019050919050565b6000612980603883612fd0565b915061298b82613572565b604082019050919050565b60006129a3602a83612fd0565b91506129ae826135c1565b604082019050919050565b60006129c6602983612fd0565b91506129d182613610565b604082019050919050565b60006129e9602083612fd0565b91506129f48261365f565b602082019050919050565b6000612a0c603183612fd0565b9150612a1782613688565b604082019050919050565b6000612a2f602c83612fd0565b9150612a3a826136d7565b604082019050919050565b6000612a52602083612fd0565b9150612a5d82613726565b602082019050919050565b6000612a75602f83612fd0565b9150612a808261374f565b604082019050919050565b6000612a98602183612fd0565b9150612aa38261379e565b604082019050919050565b6000612abb603183612fd0565b9150612ac6826137ed565b604082019050919050565b608082016000820151612ae76000850182612b26565b506020820151612afa6020850182612739565b506040820151612b0d6040850182612b26565b506060820151612b206060850182612b26565b50505050565b612b2f8161311b565b82525050565b612b3e8161311b565b82525050565b612b55612b508261311b565b613280565b82525050565b6000612b67828561284d565b9150612b73828461284d565b91508190509392505050565b6000612b8b8285612b44565b602082019150612b9b8284612757565b6014820191508190509392505050565b6000602082019050612bc06000830184612748565b92915050565b6000608082019050612bdb6000830187612748565b612be86020830186612748565b612bf56040830185612b35565b8181036060830152612c0781846127db565b905095945050505050565b60006020820190508181036000830152612c2c818461276e565b905092915050565b6000602082019050612c4960008301846127cc565b92915050565b60006020820190508181036000830152612c698184612814565b905092915050565b60006020820190508181036000830152612c8a8161287e565b9050919050565b60006020820190508181036000830152612caa816128a1565b9050919050565b60006020820190508181036000830152612cca816128c4565b9050919050565b60006020820190508181036000830152612cea816128e7565b9050919050565b60006020820190508181036000830152612d0a8161290a565b9050919050565b60006020820190508181036000830152612d2a8161292d565b9050919050565b60006020820190508181036000830152612d4a81612950565b9050919050565b60006020820190508181036000830152612d6a81612973565b9050919050565b60006020820190508181036000830152612d8a81612996565b9050919050565b60006020820190508181036000830152612daa816129b9565b9050919050565b60006020820190508181036000830152612dca816129dc565b9050919050565b60006020820190508181036000830152612dea816129ff565b9050919050565b60006020820190508181036000830152612e0a81612a22565b9050919050565b60006020820190508181036000830152612e2a81612a45565b9050919050565b60006020820190508181036000830152612e4a81612a68565b9050919050565b60006020820190508181036000830152612e6a81612a8b565b9050919050565b60006020820190508181036000830152612e8a81612aae565b9050919050565b6000602082019050612ea66000830184612b35565b92915050565b6000608082019050612ec16000830187612b35565b612ece6020830186612748565b612edb6040830185612b35565b612ee86060830184612b35565b95945050505050565b6000604082019050612f066000830185612b35565b612f136020830184612b35565b9392505050565b6000612f24612f35565b9050612f308282613199565b919050565b6000604051905090565b600067ffffffffffffffff821115612f5a57612f59613348565b5b612f6382613377565b9050602081019050919050565b6000819050602082019050919050565b600081519050919050565b600081519050919050565b600081519050919050565b6000602082019050919050565b600082825260208201905092915050565b600082825260208201905092915050565b600082825260208201905092915050565b600081905092915050565b6000612ff78261311b565b91506130028361311b565b9250827fffffffffffffffffffffffffffffffffffffffffffffffffffffffffffffffff03821115613037576130366132bb565b5b828201905092915050565b600061304d8261311b565b91506130588361311b565b925082613068576130676132ea565b5b828204905092915050565b600061307e8261311b565b91506130898361311b565b92508282101561309c5761309b6132bb565b5b828203905092915050565b60006130b2826130fb565b9050919050565b60008115159050919050565b60007fffffffff0000000000000000000000000000000000000000000000000000000082169050919050565b6000819050919050565b600073ffffffffffffffffffffffffffffffffffffffff82169050919050565b6000819050919050565b82818337600083830152505050565b60005b83811015613152578082015181840152602081019050613137565b83811115613161576000848401525b50505050565b6000600282049050600182168061317f57607f821691505b6020821081141561319357613192613319565b5b50919050565b6131a282613377565b810181811067ffffffffffffffff821117156131c1576131c0613348565b5b80604052505050565b60006131d5826130f1565b91507f7fffffffffffffffffffffffffffffffffffffffffffffffffffffffffffffff821415613208576132076132bb565b5b600182019050919050565b600061321e8261311b565b91507fffffffffffffffffffffffffffffffffffffffffffffffffffffffffffffffff821415613251576132506132bb565b5b600182019050919050565b60006132678261326e565b9050919050565b600061327982613388565b9050919050565b6000819050919050565b60006132958261311b565b91506132a08361311b565b9250826132b0576132af6132ea565b5b828206905092915050565b7f4e487b7100000000000000000000000000000000000000000000000000000000600052601160045260246000fd5b7f4e487b7100000000000000000000000000000000000000000000000000000000600052601260045260246000fd5b7f4e487b7100000000000000000000000000000000000000000000000000000000600052602260045260246000fd5b7f4e487b7100000000000000000000000000000000000000000000000000000000600052604160045260246000fd5b6000601f19601f8301169050919050565b60008160601b9050919050565b7f4552433732313a207472616e7366657220746f206e6f6e20455243373231526560008201527f63656976657220696d706c656d656e7465720000000000000000000000000000602082015250565b7f4f776e61626c653a206e6577206f776e657220697320746865207a65726f206160008201527f6464726573730000000000000000000000000000000000000000000000000000602082015250565b7f4552433732313a207472616e736665722066726f6d20696e636f72726563742060008201527f6f776e6572000000000000000000000000000000000000000000000000000000602082015250565b7f4552433732313a20746f6b656e20616c7265616479206d696e74656400000000600082015250565b7f4552433732313a207472616e7366657220746f20746865207a65726f2061646460008201527f7265737300000000000000000000000000000000000000000000000000000000602082015250565b7f4552433732313a20617070726f766520746f2063616c6c657200000000000000600082015250565b7f4552433732313a206f70657261746f7220717565727920666f72206e6f6e657860008201527f697374656e7420746f6b656e0000000000000000000000000000000000000000602082015250565b7f4552433732313a20617070726f76652063616c6c6572206973206e6f74206f7760008201527f6e6572206e6f7220617070726f76656420666f7220616c6c0000000000000000602082015250565b7f4552433732313a2062616c616e636520717565727920666f7220746865207a6560008201527f726f206164647265737300000000000000000000000000000000000000000000602082015250565b7f4552433732313a206f776e657220717565727920666f72206e6f6e657869737460008201527f656e7420746f6b656e0000000000000000000000000000000000000000000000602082015250565b7f4552433732313a206d696e7420746f20746865207a65726f2061646472657373600082015250565b7f45524337323155524953746f726167653a2055524920717565727920666f722060008201527f6e6f6e6578697374656e7420746f6b656e000000000000000000000000000000602082015250565b7f4552433732313a20617070726f76656420717565727920666f72206e6f6e657860008201527f697374656e7420746f6b656e0000000000000000000000000000000000000000602082015250565b7f4f776e61626c653a2063616c6c6572206973206e6f7420746865206f776e6572600082015250565b7f4552433732314d657461646174613a2055524920717565727920666f72206e6f60008201527f6e6578697374656e7420746f6b656e0000000000000000000000000000000000602082015250565b7f4552433732313a20617070726f76616c20746f2063757272656e74206f776e6560008201527f7200000000000000000000000000000000000000000000000000000000000000602082015250565b7f4552433732313a207472616e736665722063616c6c6572206973206e6f74206f60008201527f776e6572206e6f7220617070726f766564000000000000000000000000000000602082015250565b613845816130a7565b811461385057600080fd5b50565b61385c816130b9565b811461386757600080fd5b50565b613873816130c5565b811461387e57600080fd5b50565b61388a8161311b565b811461389557600080fd5b5056fea2646970667358221220bc6edc01ad95064827887e96b5b38c8466393c591f4d6b2f4643f7bfa0f6e61564736f6c63430008040033",
  "linkReferences": {},
  "deployedLinkReferences": {}
}