{
  "_format": "hh-sol-artifact-1",
  "contractName": "RockPaperScissor",
  "sourceName": "contracts/RockPaperScissor.sol",
  "abi": [
    {
      "inputs": [],
      "stateMutability": "nonpayable",
      "type": "constructor"
    },
    {
      "anonymous": false,
      "inputs": [
        {
          "indexed": true,
          "internalType": "address",
          "name": "owner",
          "type": "address"
        },
        {
          "indexed": true,
          "internalType": "address",
          "name": "approved",
          "type": "address"
        },
        {
          "indexed": true,
          "internalType": "uint256",
          "name": "tokenId",
          "type": "uint256"
        }
      ],
      "name": "Approval",
      "type": "event"
    },
    {
      "anonymous": false,
      "inputs": [
        {
          "indexed": true,
          "internalType": "address",
          "name": "owner",
          "type": "address"
        },
        {
          "indexed": true,
          "internalType": "address",
          "name": "operator",
          "type": "address"
        },
        {
          "indexed": false,
          "internalType": "bool",
          "name": "approved",
          "type": "bool"
        }
      ],
      "name": "ApprovalForAll",
      "type": "event"
    },
    {
      "anonymous": false,
      "inputs": [
        {
          "indexed": false,
          "internalType": "uint256",
          "name": "id",
          "type": "uint256"
        },
        {
          "indexed": true,
          "internalType": "address",
          "name": "owner",
          "type": "address"
        },
        {
          "indexed": false,
          "internalType": "uint256",
          "name": "dna",
          "type": "uint256"
        }
      ],
      "name": "NewCard",
      "type": "event"
    },
    {
      "anonymous": false,
      "inputs": [
        {
          "indexed": true,
          "internalType": "address",
          "name": "previousOwner",
          "type": "address"
        },
        {
          "indexed": true,
          "internalType": "address",
          "name": "newOwner",
          "type": "address"
        }
      ],
      "name": "OwnershipTransferred",
      "type": "event"
    },
    {
      "anonymous": false,
      "inputs": [
        {
          "indexed": true,
          "internalType": "address",
          "name": "from",
          "type": "address"
        },
        {
          "indexed": true,
          "internalType": "address",
          "name": "to",
          "type": "address"
        },
        {
          "indexed": true,
          "internalType": "uint256",
          "name": "tokenId",
          "type": "uint256"
        }
      ],
      "name": "Transfer",
      "type": "event"
    },
    {
      "inputs": [
        {
          "internalType": "address",
          "name": "to",
          "type": "address"
        },
        {
          "internalType": "uint256",
          "name": "tokenId",
          "type": "uint256"
        }
      ],
      "name": "approve",
      "outputs": [],
      "stateMutability": "nonpayable",
      "type": "function"
    },
    {
      "inputs": [
        {
          "internalType": "address",
          "name": "owner",
          "type": "address"
        }
      ],
      "name": "balanceOf",
      "outputs": [
        {
          "internalType": "uint256",
          "name": "",
          "type": "uint256"
        }
      ],
      "stateMutability": "view",
      "type": "function"
    },
    {
      "inputs": [
        {
          "internalType": "uint256",
          "name": "",
          "type": "uint256"
        }
      ],
      "name": "cards",
      "outputs": [
        {
          "internalType": "uint256",
          "name": "tokenId",
          "type": "uint256"
        },
        {
          "internalType": "address",
          "name": "owner",
          "type": "address"
        },
        {
          "internalType": "uint256",
          "name": "dna",
          "type": "uint256"
        },
        {
          "internalType": "uint256",
          "name": "level",
          "type": "uint256"
        }
      ],
      "stateMutability": "view",
      "type": "function"
    },
    {
      "inputs": [],
      "name": "createRandomCard",
      "outputs": [],
      "stateMutability": "payable",
      "type": "function"
    },
    {
      "inputs": [
        {
          "internalType": "uint256",
          "name": "tokenId",
          "type": "uint256"
        }
      ],
      "name": "getApproved",
      "outputs": [
        {
          "internalType": "address",
          "name": "",
          "type": "address"
        }
      ],
      "stateMutability": "view",
      "type": "function"
    },
    {
      "inputs": [],
      "name": "getCards",
      "outputs": [
        {
          "components": [
            {
              "internalType": "uint256",
              "name": "tokenId",
              "type": "uint256"
            },
            {
              "internalType": "address",
              "name": "owner",
              "type": "address"
            },
            {
              "internalType": "uint256",
              "name": "dna",
              "type": "uint256"
            },
            {
              "internalType": "uint256",
              "name": "level",
              "type": "uint256"
            }
          ],
          "internalType": "struct RockPaperScissor.Card[]",
          "name": "",
          "type": "tuple[]"
        }
      ],
      "stateMutability": "view",
      "type": "function"
    },
    {
      "inputs": [
        {
          "internalType": "address",
          "name": "_owner",
          "type": "address"
        }
      ],
      "name": "getOwnerCards",
      "outputs": [
        {
          "components": [
            {
              "internalType": "uint256",
              "name": "tokenId",
              "type": "uint256"
            },
            {
              "internalType": "address",
              "name": "owner",
              "type": "address"
            },
            {
              "internalType": "uint256",
              "name": "dna",
              "type": "uint256"
            },
            {
              "internalType": "uint256",
              "name": "level",
              "type": "uint256"
            }
          ],
          "internalType": "struct RockPaperScissor.Card[]",
          "name": "",
          "type": "tuple[]"
        }
      ],
      "stateMutability": "view",
      "type": "function"
    },
    {
      "inputs": [
        {
          "internalType": "address",
          "name": "_player",
          "type": "address"
        }
      ],
      "name": "getTokenBalance",
      "outputs": [
        {
          "internalType": "uint256",
          "name": "",
          "type": "uint256"
        }
      ],
      "stateMutability": "view",
      "type": "function"
    },
    {
      "inputs": [
        {
          "internalType": "address",
          "name": "owner",
          "type": "address"
        },
        {
          "internalType": "address",
          "name": "operator",
          "type": "address"
        }
      ],
      "name": "isApprovedForAll",
      "outputs": [
        {
          "internalType": "bool",
          "name": "",
          "type": "bool"
        }
      ],
      "stateMutability": "view",
      "type": "function"
    },
    {
      "inputs": [
        {
          "internalType": "uint256",
          "name": "_tokenId",
          "type": "uint256"
        }
      ],
      "name": "levelUp",
      "outputs": [],
      "stateMutability": "nonpayable",
      "type": "function"
    },
    {
      "inputs": [],
      "name": "name",
      "outputs": [
        {
          "internalType": "string",
          "name": "",
          "type": "string"
        }
      ],
      "stateMutability": "view",
      "type": "function"
    },
    {
      "inputs": [],
      "name": "owner",
      "outputs": [
        {
          "internalType": "address",
          "name": "",
          "type": "address"
        }
      ],
      "stateMutability": "view",
      "type": "function"
    },
    {
      "inputs": [
        {
          "internalType": "uint256",
          "name": "tokenId",
          "type": "uint256"
        }
      ],
      "name": "ownerOf",
      "outputs": [
        {
          "internalType": "address",
          "name": "",
          "type": "address"
        }
      ],
      "stateMutability": "view",
      "type": "function"
    },
    {
      "inputs": [],
      "name": "renounceOwnership",
      "outputs": [],
      "stateMutability": "nonpayable",
      "type": "function"
    },
    {
      "inputs": [
        {
          "internalType": "address",
          "name": "from",
          "type": "address"
        },
        {
          "internalType": "address",
          "name": "to",
          "type": "address"
        },
        {
          "internalType": "uint256",
          "name": "tokenId",
          "type": "uint256"
        }
      ],
      "name": "safeTransferFrom",
      "outputs": [],
      "stateMutability": "nonpayable",
      "type": "function"
    },
    {
      "inputs": [
        {
          "internalType": "address",
          "name": "from",
          "type": "address"
        },
        {
          "internalType": "address",
          "name": "to",
          "type": "address"
        },
        {
          "internalType": "uint256",
          "name": "tokenId",
          "type": "uint256"
        },
        {
          "internalType": "bytes",
          "name": "_data",
          "type": "bytes"
        }
      ],
      "name": "safeTransferFrom",
      "outputs": [],
      "stateMutability": "nonpayable",
      "type": "function"
    },
    {
      "inputs": [
        {
          "internalType": "address",
          "name": "operator",
          "type": "address"
        },
        {
          "internalType": "bool",
          "name": "approved",
          "type": "bool"
        }
      ],
      "name": "setApprovalForAll",
      "outputs": [],
      "stateMutability": "nonpayable",
      "type": "function"
    },
    {
      "inputs": [
        {
          "internalType": "bytes4",
          "name": "interfaceId",
          "type": "bytes4"
        }
      ],
      "name": "supportsInterface",
      "outputs": [
        {
          "internalType": "bool",
          "name": "",
          "type": "bool"
        }
      ],
      "stateMutability": "view",
      "type": "function"
    },
    {
      "inputs": [],
      "name": "symbol",
      "outputs": [
        {
          "internalType": "string",
          "name": "",
          "type": "string"
        }
      ],
      "stateMutability": "view",
      "type": "function"
    },
    {
      "inputs": [
        {
          "internalType": "uint256",
          "name": "tokenId",
          "type": "uint256"
        }
      ],
      "name": "tokenURI",
      "outputs": [
        {
          "internalType": "string",
          "name": "",
          "type": "string"
        }
      ],
      "stateMutability": "view",
      "type": "function"
    },
    {
      "inputs": [
        {
          "internalType": "address",
          "name": "from",
          "type": "address"
        },
        {
          "internalType": "address",
          "name": "to",
          "type": "address"
        },
        {
          "internalType": "uint256",
          "name": "tokenId",
          "type": "uint256"
        }
      ],
      "name": "transferFrom",
      "outputs": [],
      "stateMutability": "nonpayable",
      "type": "function"
    },
    {
      "inputs": [
        {
          "internalType": "address",
          "name": "newOwner",
          "type": "address"
        }
      ],
      "name": "transferOwnership",
      "outputs": [],
      "stateMutability": "nonpayable",
      "type": "function"
    },
    {
      "inputs": [
        {
          "internalType": "uint256",
          "name": "_fee",
          "type": "uint256"
        }
      ],
      "name": "updateFee",
      "outputs": [],
      "stateMutability": "nonpayable",
      "type": "function"
    },
    {
      "inputs": [],
      "name": "withdraw",
      "outputs": [],
      "stateMutability": "payable",
      "type": "function"
    }
  ],
  "bytecode": "0x6080604052662386f26fc100006009553480156200001c57600080fd5b506040518060400160405280601081526020017f526f636b506170657253636973736f72000000000000000000000000000000008152506040518060400160405280600381526020017f52505300000000000000000000000000000000000000000000000000000000008152508160009080519060200190620000a1929190620001b1565b508060019080519060200190620000ba929190620001b1565b505050620000dd620000d1620000e360201b60201c565b620000eb60201b60201c565b620002c6565b600033905090565b6000600760009054906101000a900473ffffffffffffffffffffffffffffffffffffffff16905081600760006101000a81548173ffffffffffffffffffffffffffffffffffffffff021916908373ffffffffffffffffffffffffffffffffffffffff1602179055508173ffffffffffffffffffffffffffffffffffffffff168173ffffffffffffffffffffffffffffffffffffffff167f8be0079c531659141344cd1fd0a4f28419497f9722a3daafe3b4186f6b6457e060405160405180910390a35050565b828054620001bf9062000261565b90600052602060002090601f016020900481019282620001e357600085556200022f565b82601f10620001fe57805160ff19168380011785556200022f565b828001600101855582156200022f579182015b828111156200022e57825182559160200191906001019062000211565b5b5090506200023e919062000242565b5090565b5b808211156200025d57600081600090555060010162000243565b5090565b600060028204905060018216806200027a57607f821691505b6020821081141562000291576200029062000297565b5b50919050565b7f4e487b7100000000000000000000000000000000000000000000000000000000600052602260045260246000fd5b6139a480620002d66000396000f3fe60806040526004361061014b5760003560e01c80638da5cb5b116100b6578063b88d4fde1161006f578063b88d4fde14610484578063bec77cb1146104ad578063c87b56dd146104ea578063e985e9c514610527578063f2fde38b14610564578063fb3f77661461058d5761014b565b80638da5cb5b146103715780638dc107681461039c5780639012c4a8146103dc57806395d89b4114610405578063a22cb46514610430578063b0df9e53146104595761014b565b80633aecd0e3116101085780633aecd0e3146102705780633ccfd60b146102ad57806342842e0e146102b75780636352211e146102e057806370a082311461031d578063715018a61461035a5761014b565b806301ffc9a71461015057806306fdde031461018d578063081812fc146101b8578063095ea7b3146101f55780630ce90ec21461021e57806323b872dd14610247575b600080fd5b34801561015c57600080fd5b506101776004803603810190610172919061277c565b610597565b6040516101849190612d0a565b60405180910390f35b34801561019957600080fd5b506101a2610679565b6040516101af9190612d25565b60405180910390f35b3480156101c457600080fd5b506101df60048036038101906101da91906127ce565b61070b565b6040516101ec9190612c81565b60405180910390f35b34801561020157600080fd5b5061021c60048036038101906102179190612740565b610790565b005b34801561022a57600080fd5b50610245600480360381019061024091906127ce565b6108a8565b005b34801561025357600080fd5b5061026e6004803603810190610269919061263a565b610952565b005b34801561027c57600080fd5b50610297600480360381019061029291906125d5565b6109b2565b6040516102a49190612f67565b60405180910390f35b6102b56109fb565b005b3480156102c357600080fd5b506102de60048036038101906102d9919061263a565b610acd565b005b3480156102ec57600080fd5b50610307600480360381019061030291906127ce565b610aed565b6040516103149190612c81565b60405180910390f35b34801561032957600080fd5b50610344600480360381019061033f91906125d5565b610b9f565b6040516103519190612f67565b60405180910390f35b34801561036657600080fd5b5061036f610c57565b005b34801561037d57600080fd5b50610386610cdf565b6040516103939190612c81565b60405180910390f35b3480156103a857600080fd5b506103c360048036038101906103be91906127ce565b610d09565b6040516103d39493929190612f82565b60405180910390f35b3480156103e857600080fd5b5061040360048036038101906103fe91906127ce565b610d69565b005b34801561041157600080fd5b5061041a610def565b6040516104279190612d25565b60405180910390f35b34801561043c57600080fd5b5061045760048036038101906104529190612704565b610e81565b005b34801561046557600080fd5b5061046e610e97565b60405161047b9190612ce8565b60405180910390f35b34801561049057600080fd5b506104ab60048036038101906104a69190612689565b610f6a565b005b3480156104b957600080fd5b506104d460048036038101906104cf91906125d5565b610fcc565b6040516104e19190612ce8565b60405180910390f35b3480156104f657600080fd5b50610511600480360381019061050c91906127ce565b6111d9565b60405161051e9190612d25565b60405180910390f35b34801561053357600080fd5b5061054e600480360381019061054991906125fe565b61132b565b60405161055b9190612d0a565b60405180910390f35b34801561057057600080fd5b5061058b600480360381019061058691906125d5565b6113bf565b005b6105956114b7565b005b60007f80ac58cd000000000000000000000000000000000000000000000000000000007bffffffffffffffffffffffffffffffffffffffffffffffffffffffff1916827bffffffffffffffffffffffffffffffffffffffffffffffffffffffff1916148061066257507f5b5e139f000000000000000000000000000000000000000000000000000000007bffffffffffffffffffffffffffffffffffffffffffffffffffffffff1916827bffffffffffffffffffffffffffffffffffffffffffffffffffffffff1916145b80610672575061067182611535565b5b9050919050565b6060600080546106889061323d565b80601f01602080910402602001604051908101604052809291908181526020018280546106b49061323d565b80156107015780601f106106d657610100808354040283529160200191610701565b820191906000526020600020905b8154815290600101906020018083116106e457829003601f168201915b5050505050905090565b60006107168261159f565b610755576040517f08c379a000000000000000000000000000000000000000000000000000000000815260040161074c90612ec7565b60405180910390fd5b6004600083815260200190815260200160002060009054906101000a900473ffffffffffffffffffffffffffffffffffffffff169050919050565b600061079b82610aed565b90508073ffffffffffffffffffffffffffffffffffffffff168373ffffffffffffffffffffffffffffffffffffffff16141561080c576040517f08c379a000000000000000000000000000000000000000000000000000000000815260040161080390612f27565b60405180910390fd5b8073ffffffffffffffffffffffffffffffffffffffff1661082b61160b565b73ffffffffffffffffffffffffffffffffffffffff16148061085a57506108598161085461160b565b61132b565b5b610899576040517f08c379a000000000000000000000000000000000000000000000000000000000815260040161089090612e27565b60405180910390fd5b6108a38383611613565b505050565b3373ffffffffffffffffffffffffffffffffffffffff166108c882610aed565b73ffffffffffffffffffffffffffffffffffffffff16146108e857600080fd5b6000600b8281548110610924577f4e487b7100000000000000000000000000000000000000000000000000000000600052603260045260246000fd5b90600052602060002090600402019050806003016000815480929190610949906132e9565b91905055505050565b61096361095d61160b565b826116cc565b6109a2576040517f08c379a000000000000000000000000000000000000000000000000000000000815260040161099990612f47565b60405180910390fd5b6109ad8383836117aa565b505050565b6000600a60008373ffffffffffffffffffffffffffffffffffffffff1673ffffffffffffffffffffffffffffffffffffffff168152602001908152602001600020549050919050565b610a0361160b565b73ffffffffffffffffffffffffffffffffffffffff16610a21610cdf565b73ffffffffffffffffffffffffffffffffffffffff1614610a77576040517f08c379a0000000000000000000000000000000000000000000000000000000008152600401610a6e90612ee7565b60405180910390fd5b6000610a81610cdf565b90508073ffffffffffffffffffffffffffffffffffffffff166108fc479081150290604051600060405180830381858888f19350505050158015610ac9573d6000803e3d6000fd5b5050565b610ae883838360405180602001604052806000815250610f6a565b505050565b6000806002600084815260200190815260200160002060009054906101000a900473ffffffffffffffffffffffffffffffffffffffff169050600073ffffffffffffffffffffffffffffffffffffffff168173ffffffffffffffffffffffffffffffffffffffff161415610b96576040517f08c379a0000000000000000000000000000000000000000000000000000000008152600401610b8d90612e67565b60405180910390fd5b80915050919050565b60008073ffffffffffffffffffffffffffffffffffffffff168273ffffffffffffffffffffffffffffffffffffffff161415610c10576040517f08c379a0000000000000000000000000000000000000000000000000000000008152600401610c0790612e47565b60405180910390fd5b600360008373ffffffffffffffffffffffffffffffffffffffff1673ffffffffffffffffffffffffffffffffffffffff168152602001908152602001600020549050919050565b610c5f61160b565b73ffffffffffffffffffffffffffffffffffffffff16610c7d610cdf565b73ffffffffffffffffffffffffffffffffffffffff1614610cd3576040517f08c379a0000000000000000000000000000000000000000000000000000000008152600401610cca90612ee7565b60405180910390fd5b610cdd6000611a11565b565b6000600760009054906101000a900473ffffffffffffffffffffffffffffffffffffffff16905090565b600b8181548110610d1957600080fd5b90600052602060002090600402016000915090508060000154908060010160009054906101000a900473ffffffffffffffffffffffffffffffffffffffff16908060020154908060030154905084565b610d7161160b565b73ffffffffffffffffffffffffffffffffffffffff16610d8f610cdf565b73ffffffffffffffffffffffffffffffffffffffff1614610de5576040517f08c379a0000000000000000000000000000000000000000000000000000000008152600401610ddc90612ee7565b60405180910390fd5b8060098190555050565b606060018054610dfe9061323d565b80601f0160208091040260200160405190810160405280929190818152602001828054610e2a9061323d565b8015610e775780601f10610e4c57610100808354040283529160200191610e77565b820191906000526020600020905b815481529060010190602001808311610e5a57829003601f168201915b5050505050905090565b610e93610e8c61160b565b8383611ad7565b5050565b6060600b805480602002602001604051908101604052809291908181526020016000905b82821015610f615783829060005260206000209060040201604051806080016040529081600082015481526020016001820160009054906101000a900473ffffffffffffffffffffffffffffffffffffffff1673ffffffffffffffffffffffffffffffffffffffff1673ffffffffffffffffffffffffffffffffffffffff1681526020016002820154815260200160038201548152505081526020019060010190610ebb565b50505050905090565b610f7b610f7561160b565b836116cc565b610fba576040517f08c379a0000000000000000000000000000000000000000000000000000000008152600401610fb190612f47565b60405180910390fd5b610fc684848484611c44565b50505050565b60606000610fd983610b9f565b67ffffffffffffffff811115611018577f4e487b7100000000000000000000000000000000000000000000000000000000600052604160045260246000fd5b60405190808252806020026020018201604052801561105157816020015b61103e6124c6565b8152602001906001900390816110365790505b5090506000805b600b805490508110156111ce578473ffffffffffffffffffffffffffffffffffffffff1661108582610aed565b73ffffffffffffffffffffffffffffffffffffffff1614156111bb57600b81815481106110db577f4e487b7100000000000000000000000000000000000000000000000000000000600052603260045260246000fd5b9060005260206000209060040201604051806080016040529081600082015481526020016001820160009054906101000a900473ffffffffffffffffffffffffffffffffffffffff1673ffffffffffffffffffffffffffffffffffffffff1673ffffffffffffffffffffffffffffffffffffffff168152602001600282015481526020016003820154815250508383815181106111a1577f4e487b7100000000000000000000000000000000000000000000000000000000600052603260045260246000fd5b602002602001018190525081806111b7906132e9565b9250505b80806111c6906132e9565b915050611058565b508192505050919050565b60606111e48261159f565b611223576040517f08c379a000000000000000000000000000000000000000000000000000000000815260040161121a90612ea7565b60405180910390fd5b60006006600084815260200190815260200160002080546112439061323d565b80601f016020809104026020016040519081016040528092919081815260200182805461126f9061323d565b80156112bc5780601f10611291576101008083540402835291602001916112bc565b820191906000526020600020905b81548152906001019060200180831161129f57829003601f168201915b5050505050905060006112cd611ca0565b90506000815114156112e3578192505050611326565b600082511115611318578082604051602001611300929190612c31565b60405160208183030381529060405292505050611326565b61132184611cb7565b925050505b919050565b6000600560008473ffffffffffffffffffffffffffffffffffffffff1673ffffffffffffffffffffffffffffffffffffffff16815260200190815260200160002060008373ffffffffffffffffffffffffffffffffffffffff1673ffffffffffffffffffffffffffffffffffffffff16815260200190815260200160002060009054906101000a900460ff16905092915050565b6113c761160b565b73ffffffffffffffffffffffffffffffffffffffff166113e5610cdf565b73ffffffffffffffffffffffffffffffffffffffff161461143b576040517f08c379a000000000000000000000000000000000000000000000000000000000815260040161143290612ee7565b60405180910390fd5b600073ffffffffffffffffffffffffffffffffffffffff168173ffffffffffffffffffffffffffffffffffffffff1614156114ab576040517f08c379a00000000000000000000000000000000000000000000000000000000081526004016114a290612d67565b60405180910390fd5b6114b481611a11565b50565b6009543410156114c657600080fd5b60005b600f8112156114ed576114da611d5e565b80806114e5906132a0565b9150506114c9565b50600f600a60003373ffffffffffffffffffffffffffffffffffffffff1673ffffffffffffffffffffffffffffffffffffffff16815260200190815260200160002081905550565b60007f01ffc9a7000000000000000000000000000000000000000000000000000000007bffffffffffffffffffffffffffffffffffffffffffffffffffffffff1916827bffffffffffffffffffffffffffffffffffffffffffffffffffffffff1916149050919050565b60008073ffffffffffffffffffffffffffffffffffffffff166002600084815260200190815260200160002060009054906101000a900473ffffffffffffffffffffffffffffffffffffffff1673ffffffffffffffffffffffffffffffffffffffff1614159050919050565b600033905090565b816004600083815260200190815260200160002060006101000a81548173ffffffffffffffffffffffffffffffffffffffff021916908373ffffffffffffffffffffffffffffffffffffffff160217905550808273ffffffffffffffffffffffffffffffffffffffff1661168683610aed565b73ffffffffffffffffffffffffffffffffffffffff167f8c5be1e5ebec7d5bd14f71427d1e84f3dd0314c0f7b2291e5b200ac8c7c3b92560405160405180910390a45050565b60006116d78261159f565b611716576040517f08c379a000000000000000000000000000000000000000000000000000000000815260040161170d90612e07565b60405180910390fd5b600061172183610aed565b90508073ffffffffffffffffffffffffffffffffffffffff168473ffffffffffffffffffffffffffffffffffffffff16148061179057508373ffffffffffffffffffffffffffffffffffffffff166117788461070b565b73ffffffffffffffffffffffffffffffffffffffff16145b806117a157506117a0818561132b565b5b91505092915050565b8273ffffffffffffffffffffffffffffffffffffffff166117ca82610aed565b73ffffffffffffffffffffffffffffffffffffffff1614611820576040517f08c379a000000000000000000000000000000000000000000000000000000000815260040161181790612d87565b60405180910390fd5b600073ffffffffffffffffffffffffffffffffffffffff168273ffffffffffffffffffffffffffffffffffffffff161415611890576040517f08c379a000000000000000000000000000000000000000000000000000000000815260040161188790612dc7565b60405180910390fd5b61189b838383611ebd565b6118a6600082611613565b6001600360008573ffffffffffffffffffffffffffffffffffffffff1673ffffffffffffffffffffffffffffffffffffffff16815260200190815260200160002060008282546118f69190613149565b925050819055506001600360008473ffffffffffffffffffffffffffffffffffffffff1673ffffffffffffffffffffffffffffffffffffffff168152602001908152602001600020600082825461194d91906130c2565b92505081905550816002600083815260200190815260200160002060006101000a81548173ffffffffffffffffffffffffffffffffffffffff021916908373ffffffffffffffffffffffffffffffffffffffff160217905550808273ffffffffffffffffffffffffffffffffffffffff168473ffffffffffffffffffffffffffffffffffffffff167fddf252ad1be2c89b69c2b068fc378daa952ba7f163c4a11628f55a4df523b3ef60405160405180910390a4611a0c838383611ec2565b505050565b6000600760009054906101000a900473ffffffffffffffffffffffffffffffffffffffff16905081600760006101000a81548173ffffffffffffffffffffffffffffffffffffffff021916908373ffffffffffffffffffffffffffffffffffffffff1602179055508173ffffffffffffffffffffffffffffffffffffffff168173ffffffffffffffffffffffffffffffffffffffff167f8be0079c531659141344cd1fd0a4f28419497f9722a3daafe3b4186f6b6457e060405160405180910390a35050565b8173ffffffffffffffffffffffffffffffffffffffff168373ffffffffffffffffffffffffffffffffffffffff161415611b46576040517f08c379a0000000000000000000000000000000000000000000000000000000008152600401611b3d90612de7565b60405180910390fd5b80600560008573ffffffffffffffffffffffffffffffffffffffff1673ffffffffffffffffffffffffffffffffffffffff16815260200190815260200160002060008473ffffffffffffffffffffffffffffffffffffffff1673ffffffffffffffffffffffffffffffffffffffff16815260200190815260200160002060006101000a81548160ff0219169083151502179055508173ffffffffffffffffffffffffffffffffffffffff168373ffffffffffffffffffffffffffffffffffffffff167f17307eab39ab6107e8899845ad3d59bd9653f200f220920489ca2b5937696c3183604051611c379190612d0a565b60405180910390a3505050565b611c4f8484846117aa565b611c5b84848484611ec7565b611c9a576040517f08c379a0000000000000000000000000000000000000000000000000000000008152600401611c9190612d47565b60405180910390fd5b50505050565b606060405180602001604052806000815250905090565b6060611cc28261159f565b611d01576040517f08c379a0000000000000000000000000000000000000000000000000000000008152600401611cf890612f07565b60405180910390fd5b6000611d0b611ca0565b90506000815111611d2b5760405180602001604052806000815250611d56565b80611d358461205e565b604051602001611d46929190612c31565b6040516020818303038152906040525b915050919050565b6000611d70662386f26fc1000061220b565b90506000604051806080016040528060085481526020013373ffffffffffffffffffffffffffffffffffffffff16815260200183815260200160018152509050600b8190806001815401808255809150506001900390600052602060002090600402016000909190919091506000820151816000015560208201518160010160006101000a81548173ffffffffffffffffffffffffffffffffffffffff021916908373ffffffffffffffffffffffffffffffffffffffff16021790555060408201518160020155606082015181600301555050611e4f33600854612250565b3373ffffffffffffffffffffffffffffffffffffffff167feb57c226e07234d31cce804586ab7d82adc046aa8bf7fb22df36b3868564898360085484604051611e99929190612fc7565b60405180910390a260086000815480929190611eb4906132e9565b91905055505050565b505050565b505050565b6000611ee88473ffffffffffffffffffffffffffffffffffffffff1661226e565b15612051578373ffffffffffffffffffffffffffffffffffffffff1663150b7a02611f1161160b565b8786866040518563ffffffff1660e01b8152600401611f339493929190612c9c565b602060405180830381600087803b158015611f4d57600080fd5b505af1925050508015611f7e57506040513d601f19601f82011682018060405250810190611f7b91906127a5565b60015b612001573d8060008114611fae576040519150601f19603f3d011682016040523d82523d6000602084013e611fb3565b606091505b50600081511415611ff9576040517f08c379a0000000000000000000000000000000000000000000000000000000008152600401611ff090612d47565b60405180910390fd5b805181602001fd5b63150b7a0260e01b7bffffffffffffffffffffffffffffffffffffffffffffffffffffffff1916817bffffffffffffffffffffffffffffffffffffffffffffffffffffffff191614915050612056565b600190505b949350505050565b606060008214156120a6576040518060400160405280600181526020017f30000000000000000000000000000000000000000000000000000000000000008152509050612206565b600082905060005b600082146120d85780806120c1906132e9565b915050600a826120d19190613118565b91506120ae565b60008167ffffffffffffffff81111561211a577f4e487b7100000000000000000000000000000000000000000000000000000000600052604160045260246000fd5b6040519080825280601f01601f19166020018201604052801561214c5781602001600182028036833780820191505090505b5090505b600085146121ff576001826121659190613149565b9150600a856121749190613360565b603061218091906130c2565b60f81b8183815181106121bc577f4e487b7100000000000000000000000000000000000000000000000000000000600052603260045260246000fd5b60200101907effffffffffffffffffffffffffffffffffffffffffffffffffffffffffffff1916908160001a905350600a856121f89190613118565b9450612150565b8093505050505b919050565b6000804233604051602001612221929190612c55565b6040516020818303038152906040528051906020012060001c905082816122489190613360565b915050919050565b61226a828260405180602001604052806000815250612291565b5050565b6000808273ffffffffffffffffffffffffffffffffffffffff163b119050919050565b61229b83836122ec565b6122a86000848484611ec7565b6122e7576040517f08c379a00000000000000000000000000000000000000000000000000000000081526004016122de90612d47565b60405180910390fd5b505050565b600073ffffffffffffffffffffffffffffffffffffffff168273ffffffffffffffffffffffffffffffffffffffff16141561235c576040517f08c379a000000000000000000000000000000000000000000000000000000000815260040161235390612e87565b60405180910390fd5b6123658161159f565b156123a5576040517f08c379a000000000000000000000000000000000000000000000000000000000815260040161239c90612da7565b60405180910390fd5b6123b160008383611ebd565b6001600360008473ffffffffffffffffffffffffffffffffffffffff1673ffffffffffffffffffffffffffffffffffffffff168152602001908152602001600020600082825461240191906130c2565b92505081905550816002600083815260200190815260200160002060006101000a81548173ffffffffffffffffffffffffffffffffffffffff021916908373ffffffffffffffffffffffffffffffffffffffff160217905550808273ffffffffffffffffffffffffffffffffffffffff16600073ffffffffffffffffffffffffffffffffffffffff167fddf252ad1be2c89b69c2b068fc378daa952ba7f163c4a11628f55a4df523b3ef60405160405180910390a46124c260008383611ec2565b5050565b604051806080016040528060008152602001600073ffffffffffffffffffffffffffffffffffffffff16815260200160008152602001600081525090565b600061251761251284613015565b612ff0565b90508281526020810184848401111561252f57600080fd5b61253a8482856131fb565b509392505050565b60008135905061255181613912565b92915050565b60008135905061256681613929565b92915050565b60008135905061257b81613940565b92915050565b60008151905061259081613940565b92915050565b600082601f8301126125a757600080fd5b81356125b7848260208601612504565b91505092915050565b6000813590506125cf81613957565b92915050565b6000602082840312156125e757600080fd5b60006125f584828501612542565b91505092915050565b6000806040838503121561261157600080fd5b600061261f85828601612542565b925050602061263085828601612542565b9150509250929050565b60008060006060848603121561264f57600080fd5b600061265d86828701612542565b935050602061266e86828701612542565b925050604061267f868287016125c0565b9150509250925092565b6000806000806080858703121561269f57600080fd5b60006126ad87828801612542565b94505060206126be87828801612542565b93505060406126cf878288016125c0565b925050606085013567ffffffffffffffff8111156126ec57600080fd5b6126f887828801612596565b91505092959194509250565b6000806040838503121561271757600080fd5b600061272585828601612542565b925050602061273685828601612557565b9150509250929050565b6000806040838503121561275357600080fd5b600061276185828601612542565b9250506020612772858286016125c0565b9150509250929050565b60006020828403121561278e57600080fd5b600061279c8482850161256c565b91505092915050565b6000602082840312156127b757600080fd5b60006127c584828501612581565b91505092915050565b6000602082840312156127e057600080fd5b60006127ee848285016125c0565b91505092915050565b60006128038383612ba7565b60808301905092915050565b6128188161317d565b82525050565b6128278161317d565b82525050565b61283e6128398261317d565b613332565b82525050565b600061284f82613056565b6128598185613084565b935061286483613046565b8060005b8381101561289557815161287c88826127f7565b975061288783613077565b925050600181019050612868565b5085935050505092915050565b6128ab8161318f565b82525050565b60006128bc82613061565b6128c68185613095565b93506128d681856020860161320a565b6128df8161344d565b840191505092915050565b60006128f58261306c565b6128ff81856130a6565b935061290f81856020860161320a565b6129188161344d565b840191505092915050565b600061292e8261306c565b61293881856130b7565b935061294881856020860161320a565b80840191505092915050565b60006129616032836130a6565b915061296c8261346b565b604082019050919050565b60006129846026836130a6565b915061298f826134ba565b604082019050919050565b60006129a76025836130a6565b91506129b282613509565b604082019050919050565b60006129ca601c836130a6565b91506129d582613558565b602082019050919050565b60006129ed6024836130a6565b91506129f882613581565b604082019050919050565b6000612a106019836130a6565b9150612a1b826135d0565b602082019050919050565b6000612a33602c836130a6565b9150612a3e826135f9565b604082019050919050565b6000612a566038836130a6565b9150612a6182613648565b604082019050919050565b6000612a79602a836130a6565b9150612a8482613697565b604082019050919050565b6000612a9c6029836130a6565b9150612aa7826136e6565b604082019050919050565b6000612abf6020836130a6565b9150612aca82613735565b602082019050919050565b6000612ae26031836130a6565b9150612aed8261375e565b604082019050919050565b6000612b05602c836130a6565b9150612b10826137ad565b604082019050919050565b6000612b286020836130a6565b9150612b33826137fc565b602082019050919050565b6000612b4b602f836130a6565b9150612b5682613825565b604082019050919050565b6000612b6e6021836130a6565b9150612b7982613874565b604082019050919050565b6000612b916031836130a6565b9150612b9c826138c3565b604082019050919050565b608082016000820151612bbd6000850182612bfc565b506020820151612bd0602085018261280f565b506040820151612be36040850182612bfc565b506060820151612bf66060850182612bfc565b50505050565b612c05816131f1565b82525050565b612c14816131f1565b82525050565b612c2b612c26826131f1565b613356565b82525050565b6000612c3d8285612923565b9150612c498284612923565b91508190509392505050565b6000612c618285612c1a565b602082019150612c71828461282d565b6014820191508190509392505050565b6000602082019050612c96600083018461281e565b92915050565b6000608082019050612cb1600083018761281e565b612cbe602083018661281e565b612ccb6040830185612c0b565b8181036060830152612cdd81846128b1565b905095945050505050565b60006020820190508181036000830152612d028184612844565b905092915050565b6000602082019050612d1f60008301846128a2565b92915050565b60006020820190508181036000830152612d3f81846128ea565b905092915050565b60006020820190508181036000830152612d6081612954565b9050919050565b60006020820190508181036000830152612d8081612977565b9050919050565b60006020820190508181036000830152612da08161299a565b9050919050565b60006020820190508181036000830152612dc0816129bd565b9050919050565b60006020820190508181036000830152612de0816129e0565b9050919050565b60006020820190508181036000830152612e0081612a03565b9050919050565b60006020820190508181036000830152612e2081612a26565b9050919050565b60006020820190508181036000830152612e4081612a49565b9050919050565b60006020820190508181036000830152612e6081612a6c565b9050919050565b60006020820190508181036000830152612e8081612a8f565b9050919050565b60006020820190508181036000830152612ea081612ab2565b9050919050565b60006020820190508181036000830152612ec081612ad5565b9050919050565b60006020820190508181036000830152612ee081612af8565b9050919050565b60006020820190508181036000830152612f0081612b1b565b9050919050565b60006020820190508181036000830152612f2081612b3e565b9050919050565b60006020820190508181036000830152612f4081612b61565b9050919050565b60006020820190508181036000830152612f6081612b84565b9050919050565b6000602082019050612f7c6000830184612c0b565b92915050565b6000608082019050612f976000830187612c0b565b612fa4602083018661281e565b612fb16040830185612c0b565b612fbe6060830184612c0b565b95945050505050565b6000604082019050612fdc6000830185612c0b565b612fe96020830184612c0b565b9392505050565b6000612ffa61300b565b9050613006828261326f565b919050565b6000604051905090565b600067ffffffffffffffff8211156130305761302f61341e565b5b6130398261344d565b9050602081019050919050565b6000819050602082019050919050565b600081519050919050565b600081519050919050565b600081519050919050565b6000602082019050919050565b600082825260208201905092915050565b600082825260208201905092915050565b600082825260208201905092915050565b600081905092915050565b60006130cd826131f1565b91506130d8836131f1565b9250827fffffffffffffffffffffffffffffffffffffffffffffffffffffffffffffffff0382111561310d5761310c613391565b5b828201905092915050565b6000613123826131f1565b915061312e836131f1565b92508261313e5761313d6133c0565b5b828204905092915050565b6000613154826131f1565b915061315f836131f1565b92508282101561317257613171613391565b5b828203905092915050565b6000613188826131d1565b9050919050565b60008115159050919050565b60007fffffffff0000000000000000000000000000000000000000000000000000000082169050919050565b6000819050919050565b600073ffffffffffffffffffffffffffffffffffffffff82169050919050565b6000819050919050565b82818337600083830152505050565b60005b8381101561322857808201518184015260208101905061320d565b83811115613237576000848401525b50505050565b6000600282049050600182168061325557607f821691505b60208210811415613269576132686133ef565b5b50919050565b6132788261344d565b810181811067ffffffffffffffff821117156132975761329661341e565b5b80604052505050565b60006132ab826131c7565b91507f7fffffffffffffffffffffffffffffffffffffffffffffffffffffffffffffff8214156132de576132dd613391565b5b600182019050919050565b60006132f4826131f1565b91507fffffffffffffffffffffffffffffffffffffffffffffffffffffffffffffffff82141561332757613326613391565b5b600182019050919050565b600061333d82613344565b9050919050565b600061334f8261345e565b9050919050565b6000819050919050565b600061336b826131f1565b9150613376836131f1565b925082613386576133856133c0565b5b828206905092915050565b7f4e487b7100000000000000000000000000000000000000000000000000000000600052601160045260246000fd5b7f4e487b7100000000000000000000000000000000000000000000000000000000600052601260045260246000fd5b7f4e487b7100000000000000000000000000000000000000000000000000000000600052602260045260246000fd5b7f4e487b7100000000000000000000000000000000000000000000000000000000600052604160045260246000fd5b6000601f19601f8301169050919050565b60008160601b9050919050565b7f4552433732313a207472616e7366657220746f206e6f6e20455243373231526560008201527f63656976657220696d706c656d656e7465720000000000000000000000000000602082015250565b7f4f776e61626c653a206e6577206f776e657220697320746865207a65726f206160008201527f6464726573730000000000000000000000000000000000000000000000000000602082015250565b7f4552433732313a207472616e736665722066726f6d20696e636f72726563742060008201527f6f776e6572000000000000000000000000000000000000000000000000000000602082015250565b7f4552433732313a20746f6b656e20616c7265616479206d696e74656400000000600082015250565b7f4552433732313a207472616e7366657220746f20746865207a65726f2061646460008201527f7265737300000000000000000000000000000000000000000000000000000000602082015250565b7f4552433732313a20617070726f766520746f2063616c6c657200000000000000600082015250565b7f4552433732313a206f70657261746f7220717565727920666f72206e6f6e657860008201527f697374656e7420746f6b656e0000000000000000000000000000000000000000602082015250565b7f4552433732313a20617070726f76652063616c6c6572206973206e6f74206f7760008201527f6e6572206e6f7220617070726f76656420666f7220616c6c0000000000000000602082015250565b7f4552433732313a2062616c616e636520717565727920666f7220746865207a6560008201527f726f206164647265737300000000000000000000000000000000000000000000602082015250565b7f4552433732313a206f776e657220717565727920666f72206e6f6e657869737460008201527f656e7420746f6b656e0000000000000000000000000000000000000000000000602082015250565b7f4552433732313a206d696e7420746f20746865207a65726f2061646472657373600082015250565b7f45524337323155524953746f726167653a2055524920717565727920666f722060008201527f6e6f6e6578697374656e7420746f6b656e000000000000000000000000000000602082015250565b7f4552433732313a20617070726f76656420717565727920666f72206e6f6e657860008201527f697374656e7420746f6b656e0000000000000000000000000000000000000000602082015250565b7f4f776e61626c653a2063616c6c6572206973206e6f7420746865206f776e6572600082015250565b7f4552433732314d657461646174613a2055524920717565727920666f72206e6f60008201527f6e6578697374656e7420746f6b656e0000000000000000000000000000000000602082015250565b7f4552433732313a20617070726f76616c20746f2063757272656e74206f776e6560008201527f7200000000000000000000000000000000000000000000000000000000000000602082015250565b7f4552433732313a207472616e736665722063616c6c6572206973206e6f74206f60008201527f776e6572206e6f7220617070726f766564000000000000000000000000000000602082015250565b61391b8161317d565b811461392657600080fd5b50565b6139328161318f565b811461393d57600080fd5b50565b6139498161319b565b811461395457600080fd5b50565b613960816131f1565b811461396b57600080fd5b5056fea2646970667358221220e5eac11046a5f16eeae68eab8bbf7dd9a1a60f7c68fe4cf4d30af17437b1122464736f6c63430008040033",
  "linkReferences": {},
  "deployedLinkReferences": {}
}